{
  "contractName": "SupplyChain",
  "abi": [
    {
      "anonymous": false,
      "inputs": [
        {
          "indexed": false,
          "internalType": "uint256",
          "name": "productId",
          "type": "uint256"
        },
        {
          "indexed": false,
          "internalType": "string",
          "name": "name",
          "type": "string"
        },
        {
          "indexed": false,
          "internalType": "string",
          "name": "origin",
          "type": "string"
        },
        {
          "indexed": false,
          "internalType": "string",
          "name": "destination",
          "type": "string"
        },
        {
          "indexed": false,
          "internalType": "uint256",
          "name": "scheduledDays",
          "type": "uint256"
        },
        {
          "indexed": false,
          "internalType": "uint256",
          "name": "orderTotal",
          "type": "uint256"
        }
      ],
      "name": "ProductAdded",
      "type": "event"
    },
    {
      "anonymous": false,
      "inputs": [
        {
          "indexed": false,
          "internalType": "uint256",
          "name": "productId",
          "type": "uint256"
        },
        {
          "indexed": false,
          "internalType": "uint256",
          "name": "delayProbability",
          "type": "uint256"
        },
        {
          "indexed": false,
          "internalType": "uint256",
          "name": "currentProfit",
          "type": "uint256"
        },
        {
          "indexed": false,
          "internalType": "uint256",
          "name": "maximumPotentialProfit",
          "type": "uint256"
        },
        {
          "indexed": false,
          "internalType": "uint256[]",
          "name": "monthlyProfits",
          "type": "uint256[]"
        }
      ],
      "name": "ProductUpdated",
      "type": "event"
    },
    {
      "inputs": [],
      "name": "productCount",
      "outputs": [
        {
          "internalType": "uint256",
          "name": "",
          "type": "uint256"
        }
      ],
      "stateMutability": "view",
      "type": "function",
      "constant": true
    },
    {
      "inputs": [
        {
          "internalType": "uint256",
          "name": "",
          "type": "uint256"
        }
      ],
      "name": "products",
      "outputs": [
        {
          "internalType": "string",
          "name": "name",
          "type": "string"
        },
        {
          "internalType": "string",
          "name": "origin",
          "type": "string"
        },
        {
          "internalType": "string",
          "name": "destination",
          "type": "string"
        },
        {
          "internalType": "uint256",
          "name": "scheduledDays",
          "type": "uint256"
        },
        {
          "internalType": "uint256",
          "name": "orderTotal",
          "type": "uint256"
        },
        {
          "internalType": "uint256",
          "name": "delayProbability",
          "type": "uint256"
        },
        {
          "internalType": "uint256",
          "name": "currentProfit",
          "type": "uint256"
        },
        {
          "internalType": "uint256",
          "name": "maximumPotentialProfit",
          "type": "uint256"
        },
        {
          "internalType": "address",
          "name": "owner",
          "type": "address"
        }
      ],
      "stateMutability": "view",
      "type": "function",
      "constant": true
    },
    {
      "inputs": [
        {
          "internalType": "string",
          "name": "name",
          "type": "string"
        },
        {
          "internalType": "string",
          "name": "origin",
          "type": "string"
        },
        {
          "internalType": "string",
          "name": "destination",
          "type": "string"
        },
        {
          "internalType": "uint256",
          "name": "scheduledDays",
          "type": "uint256"
        },
        {
          "internalType": "uint256",
          "name": "orderTotal",
          "type": "uint256"
        }
      ],
      "name": "addProduct",
      "outputs": [],
      "stateMutability": "nonpayable",
      "type": "function"
    },
    {
      "inputs": [
        {
          "internalType": "uint256",
          "name": "productId",
          "type": "uint256"
        },
        {
          "internalType": "uint256",
          "name": "delayProbability",
          "type": "uint256"
        },
        {
          "internalType": "uint256",
          "name": "currentProfit",
          "type": "uint256"
        },
        {
          "internalType": "uint256",
          "name": "maximumPotentialProfit",
          "type": "uint256"
        },
        {
          "internalType": "uint256[]",
          "name": "monthlyProfits",
          "type": "uint256[]"
        }
      ],
      "name": "updateProductStatus",
      "outputs": [],
      "stateMutability": "nonpayable",
      "type": "function"
    },
    {
      "inputs": [
        {
          "internalType": "uint256",
          "name": "productId",
          "type": "uint256"
        }
      ],
      "name": "getProduct",
      "outputs": [
        {
          "internalType": "string",
          "name": "name",
          "type": "string"
        },
        {
          "internalType": "string",
          "name": "origin",
          "type": "string"
        },
        {
          "internalType": "string",
          "name": "destination",
          "type": "string"
        },
        {
          "internalType": "uint256",
          "name": "scheduledDays",
          "type": "uint256"
        },
        {
          "internalType": "uint256",
          "name": "orderTotal",
          "type": "uint256"
        },
        {
          "internalType": "uint256",
          "name": "delayProbability",
          "type": "uint256"
        },
        {
          "internalType": "uint256",
          "name": "currentProfit",
          "type": "uint256"
        },
        {
          "internalType": "uint256",
          "name": "maximumPotentialProfit",
          "type": "uint256"
        },
        {
          "internalType": "uint256[]",
          "name": "monthlyProfits",
          "type": "uint256[]"
        },
        {
          "internalType": "address",
          "name": "owner",
          "type": "address"
        }
      ],
      "stateMutability": "view",
      "type": "function",
      "constant": true
    }
  ],
  "bytecode": "0x608060405234801561001057600080fd5b50611275806100206000396000f3fe608060405234801561001057600080fd5b50600436106100575760003560e01c8063524a046e1461005c5780637acc0b2014610078578063b9db15b4146100b0578063d10d4542146100e9578063e0f6ef8714610105575b600080fd5b61007660048036038101906100719190610b17565b610123565b005b610092600480360381019061008d9190610bd6565b610359565b6040516100a799989796959493929190610d6a565b60405180910390f35b6100ca60048036038101906100c59190610bd6565b61055f565b6040516100e09a99989796959493929190610e0c565b60405180910390f35b61010360048036038101906100fe9190610bff565b61087d565b005b61010d61090e565b60405161011a9190610ec4565b60405180910390f35b604051806101400160405280868152602001858152602001848152602001838152602001828152602001600081526020016000815260200160008152602001600067ffffffffffffffff8111156101a3577f4e487b7100000000000000000000000000000000000000000000000000000000600052604160045260246000fd5b6040519080825280602002602001820160405280156101d15781602001602082028036833780820191505090505b5081526020013373ffffffffffffffffffffffffffffffffffffffff1681525060008060015481526020019081526020016000206000820151816000019080519060200190610221929190610914565b50602082015181600101908051906020019061023e929190610914565b50604082015181600201908051906020019061025b929190610914565b50606082015181600301556080820151816004015560a0820151816005015560c0820151816006015560e082015181600701556101008201518160080190805190602001906102ab92919061099a565b506101208201518160090160006101000a81548173ffffffffffffffffffffffffffffffffffffffff021916908373ffffffffffffffffffffffffffffffffffffffff1602179055509050507fcf6cf3fa3eebaff24c58daaeec26521bb5a1d4973e2885f4cd61355030562c2b600154868686868660405161033296959493929190610edf565b60405180910390a16001600081548092919061034d90611141565b91905055505050505050565b600060205280600052604060002060009150905080600001805461037c9061110f565b80601f01602080910402602001604051908101604052809291908181526020018280546103a89061110f565b80156103f55780601f106103ca576101008083540402835291602001916103f5565b820191906000526020600020905b8154815290600101906020018083116103d857829003601f168201915b50505050509080600101805461040a9061110f565b80601f01602080910402602001604051908101604052809291908181526020018280546104369061110f565b80156104835780601f1061045857610100808354040283529160200191610483565b820191906000526020600020905b81548152906001019060200180831161046657829003601f168201915b5050505050908060020180546104989061110f565b80601f01602080910402602001604051908101604052809291908181526020018280546104c49061110f565b80156105115780601f106104e657610100808354040283529160200191610511565b820191906000526020600020905b8154815290600101906020018083116104f457829003601f168201915b5050505050908060030154908060040154908060050154908060060154908060070154908060090160009054906101000a900473ffffffffffffffffffffffffffffffffffffffff16905089565b6060806060600080600080600060606000806000808d81526020019081526020016000206040518061014001604052908160008201805461059f9061110f565b80601f01602080910402602001604051908101604052809291908181526020018280546105cb9061110f565b80156106185780601f106105ed57610100808354040283529160200191610618565b820191906000526020600020905b8154815290600101906020018083116105fb57829003601f168201915b505050505081526020016001820180546106319061110f565b80601f016020809104026020016040519081016040528092919081815260200182805461065d9061110f565b80156106aa5780601f1061067f576101008083540402835291602001916106aa565b820191906000526020600020905b81548152906001019060200180831161068d57829003601f168201915b505050505081526020016002820180546106c39061110f565b80601f01602080910402602001604051908101604052809291908181526020018280546106ef9061110f565b801561073c5780601f106107115761010080835404028352916020019161073c565b820191906000526020600020905b81548152906001019060200180831161071f57829003601f168201915b505050505081526020016003820154815260200160048201548152602001600582015481526020016006820154815260200160078201548152602001600882018054806020026020016040519081016040528092919081815260200182805480156107c657602002820191906000526020600020905b8154815260200190600101908083116107b2575b505050505081526020016009820160009054906101000a900473ffffffffffffffffffffffffffffffffffffffff1673ffffffffffffffffffffffffffffffffffffffff1673ffffffffffffffffffffffffffffffffffffffff16815250509050806000015181602001518260400151836060015184608001518560a001518660c001518760e001518861010001518961012001519a509a509a509a509a509a509a509a509a509a50509193959799509193959799565b60008060008781526020019081526020016000209050848160050181905550838160060181905550828160070181905550818160080190805190602001906108c692919061099a565b507f72d4da713811b776e4753165b7ec581dc769857cdfe1d16d916a380d664b364a86868686866040516108fe959493929190610f55565b60405180910390a1505050505050565b60015481565b8280546109209061110f565b90600052602060002090601f0160209004810192826109425760008555610989565b82601f1061095b57805160ff1916838001178555610989565b82800160010185558215610989579182015b8281111561098857825182559160200191906001019061096d565b5b50905061099691906109e7565b5090565b8280548282559060005260206000209081019282156109d6579160200282015b828111156109d55782518255916020019190600101906109ba565b5b5090506109e391906109e7565b5090565b5b80821115610a005760008160009055506001016109e8565b5090565b6000610a17610a1284610fe0565b610faf565b90508083825260208201905082856020860282011115610a3657600080fd5b60005b85811015610a665781610a4c8882610b02565b845260208401935060208301925050600181019050610a39565b5050509392505050565b6000610a83610a7e8461100c565b610faf565b905082815260208101848484011115610a9b57600080fd5b610aa68482856110cd565b509392505050565b600082601f830112610abf57600080fd5b8135610acf848260208601610a04565b91505092915050565b600082601f830112610ae957600080fd5b8135610af9848260208601610a70565b91505092915050565b600081359050610b1181611228565b92915050565b600080600080600060a08688031215610b2f57600080fd5b600086013567ffffffffffffffff811115610b4957600080fd5b610b5588828901610ad8565b955050602086013567ffffffffffffffff811115610b7257600080fd5b610b7e88828901610ad8565b945050604086013567ffffffffffffffff811115610b9b57600080fd5b610ba788828901610ad8565b9350506060610bb888828901610b02565b9250506080610bc988828901610b02565b9150509295509295909350565b600060208284031215610be857600080fd5b6000610bf684828501610b02565b91505092915050565b600080600080600060a08688031215610c1757600080fd5b6000610c2588828901610b02565b9550506020610c3688828901610b02565b9450506040610c4788828901610b02565b9350506060610c5888828901610b02565b925050608086013567ffffffffffffffff811115610c7557600080fd5b610c8188828901610aae565b9150509295509295909350565b6000610c9a8383610d4c565b60208301905092915050565b610caf81611091565b82525050565b6000610cc08261104c565b610cca818561106f565b9350610cd58361103c565b8060005b83811015610d06578151610ced8882610c8e565b9750610cf883611062565b925050600181019050610cd9565b5085935050505092915050565b6000610d1e82611057565b610d288185611080565b9350610d388185602086016110dc565b610d4181611217565b840191505092915050565b610d55816110c3565b82525050565b610d64816110c3565b82525050565b6000610120820190508181036000830152610d85818c610d13565b90508181036020830152610d99818b610d13565b90508181036040830152610dad818a610d13565b9050610dbc6060830189610d5b565b610dc96080830188610d5b565b610dd660a0830187610d5b565b610de360c0830186610d5b565b610df060e0830185610d5b565b610dfe610100830184610ca6565b9a9950505050505050505050565b6000610140820190508181036000830152610e27818d610d13565b90508181036020830152610e3b818c610d13565b90508181036040830152610e4f818b610d13565b9050610e5e606083018a610d5b565b610e6b6080830189610d5b565b610e7860a0830188610d5b565b610e8560c0830187610d5b565b610e9260e0830186610d5b565b818103610100830152610ea58185610cb5565b9050610eb5610120830184610ca6565b9b9a5050505050505050505050565b6000602082019050610ed96000830184610d5b565b92915050565b600060c082019050610ef46000830189610d5b565b8181036020830152610f068188610d13565b90508181036040830152610f1a8187610d13565b90508181036060830152610f2e8186610d13565b9050610f3d6080830185610d5b565b610f4a60a0830184610d5b565b979650505050505050565b600060a082019050610f6a6000830188610d5b565b610f776020830187610d5b565b610f846040830186610d5b565b610f916060830185610d5b565b8181036080830152610fa38184610cb5565b90509695505050505050565b6000604051905081810181811067ffffffffffffffff82111715610fd657610fd56111e8565b5b8060405250919050565b600067ffffffffffffffff821115610ffb57610ffa6111e8565b5b602082029050602081019050919050565b600067ffffffffffffffff821115611027576110266111e8565b5b601f19601f8301169050602081019050919050565b6000819050602082019050919050565b600081519050919050565b600081519050919050565b6000602082019050919050565b600082825260208201905092915050565b600082825260208201905092915050565b600061109c826110a3565b9050919050565b600073ffffffffffffffffffffffffffffffffffffffff82169050919050565b6000819050919050565b82818337600083830152505050565b60005b838110156110fa5780820151818401526020810190506110df565b83811115611109576000848401525b50505050565b6000600282049050600182168061112757607f821691505b6020821081141561113b5761113a6111b9565b5b50919050565b600061114c826110c3565b91507fffffffffffffffffffffffffffffffffffffffffffffffffffffffffffffffff82141561117f5761117e61118a565b5b600182019050919050565b7f4e487b7100000000000000000000000000000000000000000000000000000000600052601160045260246000fd5b7f4e487b7100000000000000000000000000000000000000000000000000000000600052602260045260246000fd5b7f4e487b7100000000000000000000000000000000000000000000000000000000600052604160045260246000fd5b6000601f19601f8301169050919050565b611231816110c3565b811461123c57600080fd5b5056fea264697066735822122087070e19e2e0b5724dc21509d0f6d9c0ee3e6f41c0e252d0376ce52a6a2c554f64736f6c63430008000033",
  "immutableReferences": {},
  "source": "// SPDX-License-Identifier: MIT\r\npragma solidity ^0.8.0;\r\n\r\ncontract SupplyChain {\r\n    struct Product {\r\n        string name;\r\n        string origin;\r\n        string destination;\r\n        uint scheduledDays;\r\n        uint orderTotal;\r\n        uint delayProbability;\r\n        uint currentProfit;\r\n        uint maximumPotentialProfit;\r\n        uint[] monthlyProfits;\r\n        address owner;\r\n    }\r\n\r\n    mapping(uint => Product) public products;\r\n    uint public productCount;\r\n\r\n    event ProductAdded(uint productId, string name, string origin, string destination, uint scheduledDays, uint orderTotal);\r\n    event ProductUpdated(uint productId, uint delayProbability, uint currentProfit, uint maximumPotentialProfit, uint[] monthlyProfits);\r\n\r\n    function addProduct(\r\n        string memory name,\r\n        string memory origin,\r\n        string memory destination,\r\n        uint scheduledDays,\r\n        uint orderTotal\r\n    ) public {\r\n        products[productCount] = Product(\r\n            name,\r\n            origin,\r\n            destination,\r\n            scheduledDays,\r\n            orderTotal,\r\n            0,\r\n            0,\r\n            0,\r\n            new uint[](0),\r\n            msg.sender\r\n        );\r\n        emit ProductAdded(productCount, name, origin, destination, scheduledDays, orderTotal);\r\n        productCount++;\r\n    }\r\n\r\n    function updateProductStatus(\r\n        uint productId,\r\n        uint delayProbability,\r\n        uint currentProfit,\r\n        uint maximumPotentialProfit,\r\n        uint[] memory monthlyProfits\r\n    ) public {\r\n        Product storage product = products[productId];\r\n        product.delayProbability = delayProbability;\r\n        product.currentProfit = currentProfit;\r\n        product.maximumPotentialProfit = maximumPotentialProfit;\r\n        product.monthlyProfits = monthlyProfits;\r\n\r\n        emit ProductUpdated(productId, delayProbability, currentProfit, maximumPotentialProfit, monthlyProfits);\r\n    }\r\n\r\n    function getProduct(uint productId) public view returns (\r\n        string memory name,\r\n        string memory origin,\r\n        string memory destination,\r\n        uint scheduledDays,\r\n        uint orderTotal,\r\n        uint delayProbability,\r\n        uint currentProfit,\r\n        uint maximumPotentialProfit,\r\n        uint[] memory monthlyProfits,\r\n        address owner\r\n    ) {\r\n        Product memory product = products[productId];\r\n        return (\r\n            product.name,\r\n            product.origin,\r\n            product.destination,\r\n            product.scheduledDays,\r\n            product.orderTotal,\r\n            product.delayProbability,\r\n            product.currentProfit,\r\n            product.maximumPotentialProfit,\r\n            product.monthlyProfits,\r\n            product.owner\r\n        );\r\n    }\r\n}",
  "sourcePath": "C:\\Users\\div20\\OneDrive\\Desktop\\supply-chain-blockchain\\contracts\\SupplyChain.sol",
  "compiler": {
    "name": "solc",
    "version": "0.8.0+commit.c7dfd78e.Emscripten.clang"
  },
  "schemaVersion": "3.4.16",
  "updatedAt": "2025-02-01T12:29:26.706Z",
  "networkType": "ethereum",
  "devdoc": {
    "kind": "dev",
    "methods": {},
    "version": 1
  },
  "userdoc": {
    "kind": "user",
    "methods": {},
    "version": 1
  }
}